:100000000C9436000C945E000C945E000C945E0020
:100010000C945E000C945E000C945E000C945E00E8
:100020000C945E000C945E000C945E000C945E00D8
:100030000C945E000C945E000C945E000C945E00C8
:100040000C9441030C945E000C940F030C94E90291
:100050000C945E000C945E000C945E000C945E00A8
:100060000C945E000C945E008B03D30411241FBE1D
:10007000CFEFD8E0DEBFCDBF21E0A2E4B1E001C008
:100080001D92A53FB207E1F711E0A0E0B1E0ECE579
:10009000F2E102C005900D92A234B107D9F710E049
:1000A000C5E3D0E004C02197FE010E941B09C433C0
:1000B000D107C9F70E94C5030C94D7040C94000023
:1000C000EBE4F1E0A089B18982E08C93A485B58549
:1000D0001C92A685B7858FEC8C93108EA489B58968
:1000E00086E08C93A289B3898C9180618C93A289DC
:1000F000B3898C9188608C93A289B3898C91806834
:100100008C930288F389E02D80818F7D8083089510
:10011000CF92DF92EF92FF920F931F93CF93DF93D3
:100120006C017A018B01C0E0D0E0CE15DF0589F0CB
:10013000D8016D918D01D601ED91FC910190F08176
:10014000E02DC6010995892B11F47E0102C021968C
:10015000ECCFC701DF91CF911F910F91FF90EF90EE
:10016000DF90CF900895089580E090E00895FC011D
:10017000538D448D252F30E0842F90E0821B930B0C
:10018000541710F0CF96089501970895FC01918DB2
:10019000828D981761F0828DDF01A80FB11D5D96E9
:1001A0008C91928D9F5F9F73928F90E008958FEF57
:1001B0009FEF0895FC01918D828D981731F0828D0B
:1001C000E80FF11D858D90E008958FEF9FEF089562
:1001D000FC01918D228D892F90E0805C9F4F821BC6
:1001E00091098F73992708958BE491E00E94E800AC
:1001F00021E0892B09F420E0822F0895FC01848DF1
:10020000DF01A80FB11DA35ABF4F2C91848D90E040
:1002100001968F739927848FA689B7892C93A0891B
:10022000B1898C9180648C93938D848D981306C0D2
:100230000288F389E02D80818F7D80830895EF927D
:10024000FF920F931F93CF93DF93EC0181E0888F90
:100250009B8D8C8D981305C0E889F989808185FD77
:1002600024C0F62E0B8D10E00F5F1F4F0F73112768
:10027000E02E8C8DE8120CC00FB607FCFACFE8898F
:10028000F989808185FFF5CFCE010E94FE00F1CF74
:100290008B8DFE01E80FF11DE35AFF4FF0820B8FAB
:1002A000EA89FB898081806207C0EE89FF896083CB
:1002B000E889F98980818064808381E090E0DF9122
:1002C000CF911F910F91FF90EF900895CF93DF93FF
:1002D000EC01888D8823C9F0EA89FB89808185FD3E
:1002E00005C0A889B9898C9186FD0FC00FB607FC9F
:1002F000F5CF808185FFF2CFA889B9898C9185FFE0
:10030000EDCFCE010E94FE00E7CFDF91CF9108959F
:1003100080E090E0892B29F00E94F40081110C9478
:10032000000008953FB7F8948091470190914801EB
:10033000A0914901B0914A0126B5A89B05C02F3F65
:1003400019F00196A11DB11D3FBFBA2FA92F982FFB
:100350008827820F911DA11DB11DBC01CD0142E076
:10036000660F771F881F991F4A95D1F708958F92BE
:100370009F92AF92BF92CF92DF92EF92FF920E9434
:1003800092014B015C0184EFC82EDD24D394E12C53
:10039000F12C0E949201DC01CB0188199909AA096C
:1003A000BB09883E9340A105B10558F021E0C21A6F
:1003B000D108E108F10888EE880E83E0981EA11CA0
:1003C000B11CC114D104E104F10419F7FF90EF90BE
:1003D000DF90CF90BF90AF909F908F900895CF9275
:1003E000DF92EF92FF920F931F93CF93DF93CDB7DE
:1003F000DEB7CF5AD1090FB6F894DEBF0FBECDBF1E
:100400008091E8019091E901892B09F453C0F090A3
:10041000EA01CF2C0F2C000CDD088CE389831A82B3
:1004200060910001709101018E010F5F1F4FC801A3
:100430000E94430641E050E061E171E0C8010E9482
:100440004E06DF92FF9284E291E09F938F931F927A
:1004500080E88F937E0185EAE80EF11CFF92EF920F
:100460000E946D0640E250E0B701C8010E944E06AE
:1004700041E050E060E171E0C8010E944E068091C9
:10048000E8019091E901F80101900020E9F7319726
:10049000AF01401B510BDC01ED91FC910280F38117
:1004A000E02DB80109950FB6F894DEBF0FBECDBFA1
:1004B00081E001C080E0C155DF4F0FB6F894DEBF88
:1004C0000FBECDBFDF91CF911F910F91FF90EF90A5
:1004D000DF90CF900895EF92FF920F931F93CF93E9
:1004E000DF931092EA018C01099710F008E010E008
:1004F000C0E0D0E0EE24E394F12CC017D10779F0EE
:10050000C7010C2E01C0880F0A94EAF79091EA0106
:10051000892B8093EA010E94EF012196EECFDF91B3
:10052000CF911F910F91FF90EF900C94EF01FC0180
:1005300082819381009711F00C94A60508950E9482
:100540003E06AF92BF92CF92DF92EF92FF920F934F
:100550001F93CF93DF937C018B01DB011496AD9049
:10056000BC901597B1E0AB16B104F9F4DB0112961B
:10057000ED91FC911397EF0109900020E9F7219785
:10058000CE1BDF0BCE010E9411056C01F701938396
:100590008283D80112966D917C911397AE010E94CF
:1005A0005E06CC0DDD1D188206C0FB0180819181A5
:1005B000D7018D939C93F701B582A482DF91CF91EF
:1005C0001F910F91FF90EF90DF90CF90BF90AF9071
:1005D00008951F920F920FB60F9211242F933F93FD
:1005E0004F935F936F937F938F939F93AF93BF933B
:1005F000EF93FF938BE491E00E94FE00FF91EF9157
:10060000BF91AF919F918F917F916F915F914F912A
:100610003F912F910F900FBE0F901F9018951F9232
:100620000F920FB60F9211242F938F939F93EF93F6
:10063000FF93E0915B01F0915C018081E0916101A9
:10064000F091620182FD12C09081809164018F5F00
:100650008F7320916501821751F0E0916401F0E001
:10066000E55BFE4F958F8093640101C08081FF910F
:10067000EF919F918F912F910F900FBE0F901F9030
:1006800018951F920F920FB60F9211242F933F933C
:100690008F939F93AF93BF938091430190914401B7
:1006A000A0914501B09146013091420123E0230F12
:1006B0002D3720F40196A11DB11D05C026E8230F9A
:1006C0000296A11DB11D2093420180934301909396
:1006D0004401A0934501B093460180914701909158
:1006E0004801A0914901B0914A010196A11DB11D97
:1006F0008093470190934801A0934901B0934A0128
:10070000BF91AF919F918F913F912F910F900FBE0D
:100710000F901F901895EBE4F1E01382128288EE9F
:1007200093E0A0E0B0E084839583A683B78386E15D
:1007300091E09183808385EC90E09587848784ECB9
:1007400090E09787868780EC90E0918B808B81EC9E
:1007500090E0938B828B82EC90E0958B848B86EC7F
:1007600090E0978B868B118E128E138E148EEBEE8B
:10077000F1E0118210821582148213821282E8EE57
:10078000F1E01182108212820895CF93DF9300D09E
:1007900000D000D0CDB7DEB7789484B5826084BD38
:1007A00084B5816084BD85B5826085BD85B5816075
:1007B00085BD80916E00816080936E0010928100F3
:1007C00080918100826080938100809181008160AE
:1007D000809381008091800081608093800080916F
:1007E000B10084608093B1008091B00081608093FB
:1007F000B00080917A00846080937A0080917A00C2
:10080000826080937A0080917A00816080937A0080
:1008100080917A00806880937A001092C1000E94D3
:1008200060008BE491E09093E9018093E8010E94DD
:10083000600088E0E82EF12C1A8219821E821D8247
:100840001C821B828091ED019091EE01009711F0C6
:100850000E94A605BE016F5F7F4F8BEE91E00E9464
:10086000A102CE0101960E949702FA82E9821E82BD
:100870001D821C821B828091EF019091F001892BD7
:1008800039F411E08091EB019091EC0109970CF0A3
:1008900010E0CE0101960E949702112339F1809158
:1008A000EF019091F001892B29F48091EB01909157
:1008B000EC0102C080E090E00E946B020E94B70150
:1008C0006BEE71E0CE0101960E94A1028091EF01D2
:1008D0009091F001892B29F68091EB019091EC0128
:1008E00001969093EC018093EB01BBCFFA82E982F1
:1008F0001E821D821C821B828091ED019091EE016F
:10090000009711F00E94A605BE016F5F7F4F8BEE2E
:1009100091E00E94A102CE0101960E9497021A82E4
:1009200019821E821D821C821B828091EF01909190
:10093000F001892B39F41091EC011095111F11274A
:10094000111F01C010E0CE0101960E9497021123F1
:1009500039F18091EF019091F001892B29F4809178
:10096000EB019091EC0102C080E090E00E946B02EC
:100970000E94B7016BEE71E0CE0101960E94A102C8
:100980008091EF019091F001892B29F68091EB0184
:100990009091EC0101979093EC018093EB01BBCF18
:1009A0000E94880149CF8BEE91E00C949702F89455
:1009B0000C9421092F923F924F925F926F927F92F7
:1009C0008F929F92AF92BF92CF92DF92EF92FF925F
:1009D0000F931F93CF93DF93CDB7DEB7CA1BDB0B0B
:1009E0000FB6F894DEBF0FBECDBF09942A883988B0
:1009F00048885F846E847D848C849B84AA84B984B7
:100A0000C884DF80EE80FD800C811B81AA81B981C2
:100A1000CE0FD11D0FB6F894DEBF0FBECDBFED01D6
:100A20000895CF93DF938230910510F482E090E037
:100A3000E091F301F091F40120E030E0C0E0D0E07B
:100A4000309711F14081518148175907C0F048177C
:100A5000590761F482819381209719F09B838A83DF
:100A60002BC09093F4018093F30126C0211531052A
:100A700019F04217530718F49A01BE01DF01EF0184
:100A80000280F381E02DDCCF2115310509F1281B0F
:100A9000390B2430310590F412968D919C91139767
:100AA0006115710521F0FB019383828304C090934B
:100AB000F4018093F301FD01329644C0FD01E20F81
:100AC000F31F81939193225031092D933C933AC0A7
:100AD0002091F1013091F201232B41F420910C017E
:100AE00030910D013093F2012093F10120910A0120
:100AF00030910B012115310541F42DB73EB74091DE
:100B00000E0150910F01241B350BE091F101F09182
:100B1000F201E217F307A0F42E1B3F0B2817390749
:100B200078F0AC014E5F5F4F2417350748F04E0F49
:100B30005F1F5093F2014093F1018193919302C0A2
:100B4000E0E0F0E0CF01DF91CF9108950F931F9384
:100B5000CF93DF93009709F48CC0FC013297138286
:100B600012820091F3011091F4010115110581F435
:100B700020813181820F931F2091F1013091F20188
:100B80002817390779F5F093F201E093F10171C06C
:100B9000D80140E050E0AE17BF0750F412962D91F7
:100BA0003C911397AD012115310509F1D901F3CF1E
:100BB0009D01DA013383228360817181860F971F43
:100BC0008217930769F4EC0128813981260F371FBA
:100BD0002E5F3F4F318320838A819B819383828361
:100BE000452B29F4F093F401E093F30142C01396EE
:100BF000FC93EE931297ED01499159919E01240FB8
:100C0000351FE217F30771F480819181840F951FDE
:100C1000029611969C938E938281938113969C9356
:100C20008E931297E0E0F0E0D80112968D919C919E
:100C30001397009719F0F8018C01F6CF8D919C91D4
:100C400098012E5F3F4F820F931F2091F101309149
:100C5000F2012817390769F4309729F41092F4014A
:100C60001092F30102C0138212821093F2010093DA
:100C7000F101DF91CF911F910F91089581E090E0F4
:100C8000F8940C942109FB01DC010D900020E9F798
:100C9000119701900D920020E1F70895FB01DC010E
:100CA0000D900020E9F711974150504028F0019035
:100CB00000200D92C9F708951C920895FB01DC01F4
:100CC0004150504048F001900D920020C9F701C0FA
:100CD0001D9241505040E0F70895AEE0B0E0E3E7E8
:100CE000F6E00C94E8040D891E898F89988D26E022
:100CF0002C831A83098397FF02C080E090E8019754
:100D00009E838D83AE01455E5F4F698D7A8DCE01E6
:100D100001960E949D064D815E8157FD0AC02F817C
:100D20003885421753070CF49A01F801E20FF31FBC
:100D300010822E96E4E00C940405ACE0B0E0E3EA07
:100D4000F6E00C94DA047C016B018A01FC01178245
:100D50001682838181FFBDC1CE0101964C01F7014E
:100D60009381F60193FD859193FF81916F01882313
:100D700009F4ABC1853239F493FD859193FF8191DC
:100D80006F01853229F4B70190E00E948508E7CF12
:100D9000512C312C20E02032A0F48B3269F030F459
:100DA000803259F0833269F420612CC08D3239F0E1
:100DB000803339F4216026C02260246023C028607B
:100DC00021C027FD27C030ED380F3A3078F426FFD8
:100DD00006C0FAE05F9E300D1124532E13C08AE046
:100DE000389E300D1124332E20620CC08E3221F437
:100DF00026FD6BC1206406C08C3611F4206802C049
:100E0000883641F4F60193FD859193FF81916F013E
:100E10008111C1CF982F9F7D9554933028F40C5F9A
:100E20001F4FFFE3F9830DC0833631F0833771F034
:100E3000833509F05BC022C0F801808189830E5F91
:100E40001F4F44244394512C540115C03801F2E043
:100E50006F0E711CF801A080B18026FF03C0652DC4
:100E600070E002C06FEF7FEFC5012C870E947A0807
:100E70002C0183012C852F77222E17C03801F2E038
:100E80006F0E711CF801A080B18026FF03C0652D94
:100E900070E002C06FEF7FEFC5012C870E946F08E2
:100EA0002C012C852068222E830123FC1BC0832D5E
:100EB00090E048165906B0F4B70180E290E00E9435
:100EC00085083A94F4CFF50127FC859127FE81919E
:100ED0005F01B70190E00E94850831103A94F1E07B
:100EE0004F1A51084114510471F7E5C0843611F0CE
:100EF000893639F5F80127FF07C060817181828149
:100F000093810C5F1F4F08C060817181072E000C18
:100F1000880B990B0E5F1F4F2F76722E97FF09C01B
:100F200090958095709561957F4F8F4F9F4F20686A
:100F3000722E2AE030E0A4010E94BD08A82EA81855
:100F400044C0853729F42F7EB22E2AE030E025C038
:100F5000F22FF97FBF2E8F36C1F018F4883579F063
:100F6000B4C0803719F0883721F0AFC02F2F20612F
:100F7000B22EB4FE0DC08B2D8460B82E09C024FFA4
:100F80000AC09F2F9660B92E06C028E030E005C049
:100F900020E130E002C020E132E0F801B7FE07C0F6
:100FA00060817181828193810C5F1F4F06C06081D7
:100FB000718180E090E00E5F1F4FA4010E94BD0888
:100FC000A82EA818FB2DFF777F2E76FE0BC0372D9D
:100FD0003E7FA51450F474FE0AC072FC08C0372D81
:100FE0003E7E05C0BA2C372D03C0BA2C01C0B52CEB
:100FF00034FF0DC0FE01EA0DF11D8081803311F434
:10100000397E09C032FF06C0B394B39404C0832F65
:10101000867809F0B39433FD13C030FF06C05A2C14
:10102000B31418F4530C5B18B32CB31468F4B70161
:1010300080E290E03C870E948508B3943C85F5CF20
:10104000B31410F43B1801C0312C34FF12C0B701A7
:1010500080E390E03C870E9485083C8532FF17C002
:1010600031FD03C088E790E002C088E590E0B70159
:101070000CC0832F867859F031FF02C08BE201C08B
:1010800080E237FD8DE2B70190E00E948508A5144B
:1010900038F4B70180E390E00E9485085A94F7CFB6
:1010A000AA94F401EA0DF11D8081B70190E00E943D
:1010B0008508A110F5CF332009F451CEB70180E2A5
:1010C00090E00E9485083A94F6CFF70186819781D7
:1010D00002C08FEF9FEF2C96E2E10C94F604FC0126
:1010E0000590615070400110D8F7809590958E0F53
:1010F0009F1F0895FC016150704001900110D8F7C6
:10110000809590958E0F9F1F08950F931F93CF93F7
:10111000DF93FB01238121FD03C08FEF9FEF28C0E8
:1011200022FF16C04681578124813581421753071B
:1011300044F4A081B1819D012F5F3F4F3183208313
:101140008C93268137812F5F3F4F3783268310C0D2
:10115000EB01092F182F0084F185E02D0995892BCB
:10116000E1F68E819F8101969F838E83812F902F40
:10117000DF91CF911F910F910895FA01AA2728308E
:1011800051F1203181F1E8946F936E7F6E5F7F4F54
:101190008F4F9F4FAF4FB1E03ED0B4E03CD0670FD0
:1011A000781F891F9A1FA11D680F791F8A1F911D23
:1011B000A11D6A0F711D811D911DA11D20D009F473
:1011C00068943F912AE0269F11243019305D3193B5
:1011D000DEF6CF010895462F4770405D4193B3E09E
:1011E0000FD0C9F7F6CF462F4F70405D4A3318F045
:1011F000495D31FD4052419302D0A9F7EACFB4E0F6
:10120000A6959795879577956795BA95C9F70097AD
:101210006105710508959B01AC010A2E069457954E
:10122000479537952795BA95C9F7620F731F841FA5
:10123000951FA01D0895EE0FFF1F0590F491E02D5E
:10124000099410E0C5E3D0E004C0FE010E941B0930
:0C1250002196C633D107C9F7F894FFCFF0
:10125C0027012B01310138013C010000F501800010
:10126C000A0D000000001F018800B7006601E800AD
:10127C00C600DA00256400494E5400464C4F4154D8
:10128C0000444F55424C450053545200424F4F4C72
:02129C00000050
:00000001FF
